{
	"data": {
		"bytecode": {
			"linkReferences": {},
			"object": "60806040526001805473466af825073bc346180ba2664dbd3f31b9ef22be6001600160a01b0319918216811783556002805490921617905560006003819055600455600855606460095534801561005557600080fd5b50600080546001600160a01b031916331790556112a5806100776000396000f3fe6080604052600436106100eb5760003560e01c806397ba499f11610084578063a22280a611610056578063a22280a614610242578063b4f40c6114610255578063c38ad2731461026b578063f851a4401461028057005b806397ba499f146101d657806397c82884146101ec5780639adb3b97146102195780639cd441da1461022f57005b806358ad6de4116100bd57806358ad6de4146101955780637b1870d6146101a85780638259e6a0146101b0578063857620e1146101c357005b80630b32772b1461012c578063132c4feb146101575780632eab28411461016d5780632ff6fe761461018057005b3661012a57604080513381523460208201527f88a5966d370b9919b20f3e2c13ff65706f196a4e32cc2c12bf57088f88525874910160405180910390a1005b005b34801561013857600080fd5b506101446305f5e10081565b6040519081526020015b60405180910390f35b34801561016357600080fd5b5061014460065481565b61012a61017b3660046110dd565b6102b8565b34801561018c57600080fd5b506101446104c5565b61012a6101a33660046110f6565b6104eb565b61012a610595565b61012a6101be3660046110dd565b610795565b61012a6101d1366004611118565b6109fe565b3480156101e257600080fd5b5061014460045481565b3480156101f857600080fd5b50610144610207366004611144565b60056020526000908152604090205481565b34801561022557600080fd5b5061014460035481565b61012a61023d3660046110f6565b610ca9565b61012a6102503660046110f6565b610e54565b34801561026157600080fd5b5061014460075481565b34801561027757600080fd5b50610144611085565b34801561028c57600080fd5b506000546102a0906001600160a01b031681565b6040516001600160a01b03909116815260200161014e565b60006102e56102de6009546102d8600854346110a690919063ffffffff16565b906110b9565b34906110c5565b905060006102fe826004546110d190919063ffffffff16565b90506000610317826007546110b990919063ffffffff16565b90506000610330826003546110c590919063ffffffff16565b905080600354116103845760405162461bcd60e51b8152602060048201526019602482015278151a1a5cc81ddbdd5b1908191c985a5b881d1a19481c1bdbdb603a1b60448201526064015b60405180910390fd5b6103966305f5e1006102d887876110a6565b8110156103b55760405162461bcd60e51b815260040161037b9061116d565b6004838155600383905560025460405163a9059cbb60e01b81523392810192909252602482018390526001600160a01b03169063a9059cbb90604401602060405180830381600087803b15801561040b57600080fd5b505af115801561041f573d6000803e3d6000fd5b505050506040513d601f19601f820116820180604052508101906104439190611198565b50600061045d6004546003546110a690919063ffffffff16565b9050600754811061047d576007546104769082906110c5565b905061048d565b60075461048a90826110c5565b90505b6104af60016104a96004546003546110d190919063ffffffff16565b906110d1565b81106104bd576104bd6111ba565b505050505050565b60006104e66004546102d86003546305f5e1006110a690919063ffffffff16565b905090565b33600090815260056020526040902054600654116105595760405162461bcd60e51b815260206004820152602560248201527f43616e27742068617665206c6173742070726f766964657220776974686472616044820152641dc8185b1b60da1b606482015260840161037b565b610561610595565b600654336000908152600560205260409020546004546105919261058a9290916102d8916110a6565b83836109fe565b5050565b6004546105a290346110d1565b4711801561062b57506003546002546040516370a0823160e01b81523060048201526001600160a01b03909116906370a082319060240160206040518083038186803b1580156105f157600080fd5b505afa158015610605573d6000803e3d6000fd5b505050506040513d601f19601f8201168201806040525081019061062991906111d0565b115b15610793576003546002546040516370a0823160e01b81523060048201526000926106bd9290916001600160a01b03909116906370a082319060240160206040518083038186803b15801561067f57600080fd5b505afa158015610693573d6000803e3d6000fd5b505050506040513d601f19601f820116820180604052508101906106b791906111d0565b906110c5565b905060006106da6004546106b734476110c590919063ffffffff16565b905060006106f86305f5e1006102d86106f1611085565b86906110a6565b9050600081831061070a575082610723565b8291506107206305f5e1006102d86106f16104c5565b90505b60045461073090836110d1565b60045560035461074090826110d1565b6003819055600454610751916110a6565b60075560408051838152602081018390527f61d66d8767ff702762e19c18b3cf4a23e2eef70b62fde2720244871ba6d796c791015b60405180910390a1505050505b565b6000546001600160a01b031633146107f95760405162461bcd60e51b815260206004820152602160248201527f4f6e6c792061646d696e2063616e2075736520746869732066756e6374696f6e6044820152602160f81b606482015260840161037b565b600354156108495760405162461bcd60e51b815260206004820152601860248201527f546f6b656e20726573657276657320776173206e6f7420300000000000000000604482015260640161037b565b600454156108995760405162461bcd60e51b815260206004820152601760248201527f45544820726573657276657320776173206e6f7420302e000000000000000000604482015260640161037b565b600034116108e95760405162461bcd60e51b815260206004820152601860248201527f4e6565642045544820746f2063726561746520706f6f6c2e0000000000000000604482015260640161037b565b600081116109395760405162461bcd60e51b815260206004820152601b60248201527f4e65656420746f6b656e7320746f2063726561746520706f6f6c2e0000000000604482015260640161037b565b6109476305f5e100346110a6565b600681905533600090815260056020526040902055346004819055600382905561097190826110a6565b6007556002546040516323b872dd60e01b8152336004820152306024820152604481018390526001600160a01b03909116906323b872dd90606401602060405180830381600087803b1580156109c657600080fd5b505af11580156109da573d6000803e3d6000fd5b505050506040513d601f19601f820116820180604052508101906105919190611198565b60008311610a425760405162461bcd60e51b81526020600482015260116024820152704e6f7468696e6720746f2072656d6f766560781b604482015260640161037b565b610a4a610595565b80610a536104c5565b10158015610a68575081610a656104c5565b11155b610a845760405162461bcd60e51b815260040161037b9061116d565b6000610aa06305f5e1006102d8610a996104c5565b87906110a6565b90506000610abf6004546102d8876006546110a690919063ffffffff16565b905084600454118015610ad3575081600354115b8015610aee5750336000908152600560205260409020548111155b610b4b5760405162461bcd60e51b815260206004820152602860248201527f547279696e6720746f2072656d6f7665206d6f7265207468616e206d617820616044820152677661696c61626c6560c01b606482015260840161037b565b33600090815260056020526040902054610b6590826110c5565b33600090815260056020526040902055600654610b8290826110c5565b600655600454610b9290866110c5565b600455600354610ba290836110c5565b6003819055600454610bb3916110a6565b60075560025460405163a9059cbb60e01b8152336004820152602481018490526001600160a01b039091169063a9059cbb90604401602060405180830381600087803b158015610c0257600080fd5b505af1158015610c16573d6000803e3d6000fd5b505050506040513d601f19601f82011682018060405250810190610c3a9190611198565b50604051339086156108fc029087906000818181858888f19350505050158015610c68573d6000803e3d6000fd5b5060408051338152602081018790527fdfdd120ded9b7afc0c23dd5310e93aaa3e1c3b9f75af9b805fab3030842439f2910160405180910390a15050505050565b610cb1610595565b80610cba6104c5565b10158015610ccf575081610ccc6104c5565b11155b610ceb5760405162461bcd60e51b815260040161037b9061116d565b6000610d076305f5e1006102d8610d006104c5565b34906110a6565b90506000610d266004546102d8346006546110a690919063ffffffff16565b33600090815260056020526040902054909150610d4390826110d1565b33600090815260056020526040902055600654610d6090826110d1565b600655600454610d7090346110d1565b600455600354610d8090836110d1565b6003819055600454610d91916110a6565b6007556002546040516323b872dd60e01b8152336004820152306024820152604481018490526001600160a01b03909116906323b872dd90606401602060405180830381600087803b158015610de657600080fd5b505af1158015610dfa573d6000803e3d6000fd5b505050506040513d601f19601f82011682018060405250810190610e1e9190611198565b50604080513381523460208201527fbb37879e252460856212dc4e8c6edf174e473df9423e3a7feccd21f8c28d587a9101610786565b6000610e7b610e746009546102d8600854876110a690919063ffffffff16565b84906110c5565b90506000610e94826003546110d190919063ffffffff16565b90506000610ead826007546110b990919063ffffffff16565b90506000610ec6826004546110c590919063ffffffff16565b90508060045411610f155760405162461bcd60e51b8152602060048201526019602482015278151a1a5cc81ddbdd5b1908191c985a5b881d1a19481c1bdbdb603a1b604482015260640161037b565b610f276305f5e1006102d887876110a6565b811015610f465760405162461bcd60e51b815260040161037b9061116d565b600482815560038490556002546040516323b872dd60e01b81523392810192909252306024830152604482018890526001600160a01b0316906323b872dd90606401602060405180830381600087803b158015610fa257600080fd5b505af1158015610fb6573d6000803e3d6000fd5b505050506040513d601f19601f82011682018060405250810190610fda9190611198565b50604051339082156108fc029083906000818181858888f19350505050158015611008573d6000803e3d6000fd5b5060006110226004546003546110a690919063ffffffff16565b905060075481106110425760075461103b9082906110c5565b9050611052565b60075461104f90826110c5565b90505b61106e60016104a96004546003546110d190919063ffffffff16565b811061107c5761107c6111ba565b50505050505050565b60006104e66003546102d86004546305f5e1006110a690919063ffffffff16565b60006110b282846111ff565b9392505050565b60006110b2828461121e565b60006110b28284611240565b60006110b28284611257565b6000602082840312156110ef57600080fd5b5035919050565b6000806040838503121561110957600080fd5b50508035926020909101359150565b60008060006060848603121561112d57600080fd5b505081359360208301359350604090920135919050565b60006020828403121561115657600080fd5b81356001600160a01b03811681146110b257600080fd5b6020808252601190820152700a6d8d2e0e0c2ceca40e8dede40d0d2ced607b1b604082015260600190565b6000602082840312156111aa57600080fd5b815180151581146110b257600080fd5b634e487b7160e01b600052600160045260246000fd5b6000602082840312156111e257600080fd5b5051919050565b634e487b7160e01b600052601160045260246000fd5b6000816000190483118215151615611219576112196111e9565b500290565b60008261123b57634e487b7160e01b600052601260045260246000fd5b500490565b600082821015611252576112526111e9565b500390565b6000821982111561126a5761126a6111e9565b50019056fea264697066735822122012ad610f32bf5260d5e0124237a7a6eb9aeb7a3678e70343201b2f06046086a664736f6c63430008090033",
			"opcodes": "PUSH1 0x80 PUSH1 0x40 MSTORE PUSH1 0x1 DUP1 SLOAD PUSH20 0x466AF825073BC346180BA2664DBD3F31B9EF22BE PUSH1 0x1 PUSH1 0x1 PUSH1 0xA0 SHL SUB NOT SWAP2 DUP3 AND DUP2 OR DUP4 SSTORE PUSH1 0x2 DUP1 SLOAD SWAP1 SWAP3 AND OR SWAP1 SSTORE PUSH1 0x0 PUSH1 0x3 DUP2 SWAP1 SSTORE PUSH1 0x4 SSTORE PUSH1 0x8 SSTORE PUSH1 0x64 PUSH1 0x9 SSTORE CALLVALUE DUP1 ISZERO PUSH2 0x55 JUMPI PUSH1 0x0 DUP1 REVERT JUMPDEST POP PUSH1 0x0 DUP1 SLOAD PUSH1 0x1 PUSH1 0x1 PUSH1 0xA0 SHL SUB NOT AND CALLER OR SWAP1 SSTORE PUSH2 0x12A5 DUP1 PUSH2 0x77 PUSH1 0x0 CODECOPY PUSH1 0x0 RETURN INVALID PUSH1 0x80 PUSH1 0x40 MSTORE PUSH1 0x4 CALLDATASIZE LT PUSH2 0xEB JUMPI PUSH1 0x0 CALLDATALOAD PUSH1 0xE0 SHR DUP1 PUSH4 0x97BA499F GT PUSH2 0x84 JUMPI DUP1 PUSH4 0xA22280A6 GT PUSH2 0x56 JUMPI DUP1 PUSH4 0xA22280A6 EQ PUSH2 0x242 JUMPI DUP1 PUSH4 0xB4F40C61 EQ PUSH2 0x255 JUMPI DUP1 PUSH4 0xC38AD273 EQ PUSH2 0x26B JUMPI DUP1 PUSH4 0xF851A440 EQ PUSH2 0x280 JUMPI STOP JUMPDEST DUP1 PUSH4 0x97BA499F EQ PUSH2 0x1D6 JUMPI DUP1 PUSH4 0x97C82884 EQ PUSH2 0x1EC JUMPI DUP1 PUSH4 0x9ADB3B97 EQ PUSH2 0x219 JUMPI DUP1 PUSH4 0x9CD441DA EQ PUSH2 0x22F JUMPI STOP JUMPDEST DUP1 PUSH4 0x58AD6DE4 GT PUSH2 0xBD JUMPI DUP1 PUSH4 0x58AD6DE4 EQ PUSH2 0x195 JUMPI DUP1 PUSH4 0x7B1870D6 EQ PUSH2 0x1A8 JUMPI DUP1 PUSH4 0x8259E6A0 EQ PUSH2 0x1B0 JUMPI DUP1 PUSH4 0x857620E1 EQ PUSH2 0x1C3 JUMPI STOP JUMPDEST DUP1 PUSH4 0xB32772B EQ PUSH2 0x12C JUMPI DUP1 PUSH4 0x132C4FEB EQ PUSH2 0x157 JUMPI DUP1 PUSH4 0x2EAB2841 EQ PUSH2 0x16D JUMPI DUP1 PUSH4 0x2FF6FE76 EQ PUSH2 0x180 JUMPI STOP JUMPDEST CALLDATASIZE PUSH2 0x12A JUMPI PUSH1 0x40 DUP1 MLOAD CALLER DUP2 MSTORE CALLVALUE PUSH1 0x20 DUP3 ADD MSTORE PUSH32 0x88A5966D370B9919B20F3E2C13FF65706F196A4E32CC2C12BF57088F88525874 SWAP2 ADD PUSH1 0x40 MLOAD DUP1 SWAP2 SUB SWAP1 LOG1 STOP JUMPDEST STOP JUMPDEST CALLVALUE DUP1 ISZERO PUSH2 0x138 JUMPI PUSH1 0x0 DUP1 REVERT JUMPDEST POP PUSH2 0x144 PUSH4 0x5F5E100 DUP2 JUMP JUMPDEST PUSH1 0x40 MLOAD SWAP1 DUP2 MSTORE PUSH1 0x20 ADD JUMPDEST PUSH1 0x40 MLOAD DUP1 SWAP2 SUB SWAP1 RETURN JUMPDEST CALLVALUE DUP1 ISZERO PUSH2 0x163 JUMPI PUSH1 0x0 DUP1 REVERT JUMPDEST POP PUSH2 0x144 PUSH1 0x6 SLOAD DUP2 JUMP JUMPDEST PUSH2 0x12A PUSH2 0x17B CALLDATASIZE PUSH1 0x4 PUSH2 0x10DD JUMP JUMPDEST PUSH2 0x2B8 JUMP JUMPDEST CALLVALUE DUP1 ISZERO PUSH2 0x18C JUMPI PUSH1 0x0 DUP1 REVERT JUMPDEST POP PUSH2 0x144 PUSH2 0x4C5 JUMP JUMPDEST PUSH2 0x12A PUSH2 0x1A3 CALLDATASIZE PUSH1 0x4 PUSH2 0x10F6 JUMP JUMPDEST PUSH2 0x4EB JUMP JUMPDEST PUSH2 0x12A PUSH2 0x595 JUMP JUMPDEST PUSH2 0x12A PUSH2 0x1BE CALLDATASIZE PUSH1 0x4 PUSH2 0x10DD JUMP JUMPDEST PUSH2 0x795 JUMP JUMPDEST PUSH2 0x12A PUSH2 0x1D1 CALLDATASIZE PUSH1 0x4 PUSH2 0x1118 JUMP JUMPDEST PUSH2 0x9FE JUMP JUMPDEST CALLVALUE DUP1 ISZERO PUSH2 0x1E2 JUMPI PUSH1 0x0 DUP1 REVERT JUMPDEST POP PUSH2 0x144 PUSH1 0x4 SLOAD DUP2 JUMP JUMPDEST CALLVALUE DUP1 ISZERO PUSH2 0x1F8 JUMPI PUSH1 0x0 DUP1 REVERT JUMPDEST POP PUSH2 0x144 PUSH2 0x207 CALLDATASIZE PUSH1 0x4 PUSH2 0x1144 JUMP JUMPDEST PUSH1 0x5 PUSH1 0x20 MSTORE PUSH1 0x0 SWAP1 DUP2 MSTORE PUSH1 0x40 SWAP1 KECCAK256 SLOAD DUP2 JUMP JUMPDEST CALLVALUE DUP1 ISZERO PUSH2 0x225 JUMPI PUSH1 0x0 DUP1 REVERT JUMPDEST POP PUSH2 0x144 PUSH1 0x3 SLOAD DUP2 JUMP JUMPDEST PUSH2 0x12A PUSH2 0x23D CALLDATASIZE PUSH1 0x4 PUSH2 0x10F6 JUMP JUMPDEST PUSH2 0xCA9 JUMP JUMPDEST PUSH2 0x12A PUSH2 0x250 CALLDATASIZE PUSH1 0x4 PUSH2 0x10F6 JUMP JUMPDEST PUSH2 0xE54 JUMP JUMPDEST CALLVALUE DUP1 ISZERO PUSH2 0x261 JUMPI PUSH1 0x0 DUP1 REVERT JUMPDEST POP PUSH2 0x144 PUSH1 0x7 SLOAD DUP2 JUMP JUMPDEST CALLVALUE DUP1 ISZERO PUSH2 0x277 JUMPI PUSH1 0x0 DUP1 REVERT JUMPDEST POP PUSH2 0x144 PUSH2 0x1085 JUMP JUMPDEST CALLVALUE DUP1 ISZERO PUSH2 0x28C JUMPI PUSH1 0x0 DUP1 REVERT JUMPDEST POP PUSH1 0x0 SLOAD PUSH2 0x2A0 SWAP1 PUSH1 0x1 PUSH1 0x1 PUSH1 0xA0 SHL SUB AND DUP2 JUMP JUMPDEST PUSH1 0x40 MLOAD PUSH1 0x1 PUSH1 0x1 PUSH1 0xA0 SHL SUB SWAP1 SWAP2 AND DUP2 MSTORE PUSH1 0x20 ADD PUSH2 0x14E JUMP JUMPDEST PUSH1 0x0 PUSH2 0x2E5 PUSH2 0x2DE PUSH1 0x9 SLOAD PUSH2 0x2D8 PUSH1 0x8 SLOAD CALLVALUE PUSH2 0x10A6 SWAP1 SWAP2 SWAP1 PUSH4 0xFFFFFFFF AND JUMP JUMPDEST SWAP1 PUSH2 0x10B9 JUMP JUMPDEST CALLVALUE SWAP1 PUSH2 0x10C5 JUMP JUMPDEST SWAP1 POP PUSH1 0x0 PUSH2 0x2FE DUP3 PUSH1 0x4 SLOAD PUSH2 0x10D1 SWAP1 SWAP2 SWAP1 PUSH4 0xFFFFFFFF AND JUMP JUMPDEST SWAP1 POP PUSH1 0x0 PUSH2 0x317 DUP3 PUSH1 0x7 SLOAD PUSH2 0x10B9 SWAP1 SWAP2 SWAP1 PUSH4 0xFFFFFFFF AND JUMP JUMPDEST SWAP1 POP PUSH1 0x0 PUSH2 0x330 DUP3 PUSH1 0x3 SLOAD PUSH2 0x10C5 SWAP1 SWAP2 SWAP1 PUSH4 0xFFFFFFFF AND JUMP JUMPDEST SWAP1 POP DUP1 PUSH1 0x3 SLOAD GT PUSH2 0x384 JUMPI PUSH1 0x40 MLOAD PUSH3 0x461BCD PUSH1 0xE5 SHL DUP2 MSTORE PUSH1 0x20 PUSH1 0x4 DUP3 ADD MSTORE PUSH1 0x19 PUSH1 0x24 DUP3 ADD MSTORE PUSH25 0x151A1A5CC81DDBDD5B1908191C985A5B881D1A19481C1BDBDB PUSH1 0x3A SHL PUSH1 0x44 DUP3 ADD MSTORE PUSH1 0x64 ADD JUMPDEST PUSH1 0x40 MLOAD DUP1 SWAP2 SUB SWAP1 REVERT JUMPDEST PUSH2 0x396 PUSH4 0x5F5E100 PUSH2 0x2D8 DUP8 DUP8 PUSH2 0x10A6 JUMP JUMPDEST DUP2 LT ISZERO PUSH2 0x3B5 JUMPI PUSH1 0x40 MLOAD PUSH3 0x461BCD PUSH1 0xE5 SHL DUP2 MSTORE PUSH1 0x4 ADD PUSH2 0x37B SWAP1 PUSH2 0x116D JUMP JUMPDEST PUSH1 0x4 DUP4 DUP2 SSTORE PUSH1 0x3 DUP4 SWAP1 SSTORE PUSH1 0x2 SLOAD PUSH1 0x40 MLOAD PUSH4 0xA9059CBB PUSH1 0xE0 SHL DUP2 MSTORE CALLER SWAP3 DUP2 ADD SWAP3 SWAP1 SWAP3 MSTORE PUSH1 0x24 DUP3 ADD DUP4 SWAP1 MSTORE PUSH1 0x1 PUSH1 0x1 PUSH1 0xA0 SHL SUB AND SWAP1 PUSH4 0xA9059CBB SWAP1 PUSH1 0x44 ADD PUSH1 0x20 PUSH1 0x40 MLOAD DUP1 DUP4 SUB DUP2 PUSH1 0x0 DUP8 DUP1 EXTCODESIZE ISZERO DUP1 ISZERO PUSH2 0x40B JUMPI PUSH1 0x0 DUP1 REVERT JUMPDEST POP GAS CALL ISZERO DUP1 ISZERO PUSH2 0x41F JUMPI RETURNDATASIZE PUSH1 0x0 DUP1 RETURNDATACOPY RETURNDATASIZE PUSH1 0x0 REVERT JUMPDEST POP POP POP POP PUSH1 0x40 MLOAD RETURNDATASIZE PUSH1 0x1F NOT PUSH1 0x1F DUP3 ADD AND DUP3 ADD DUP1 PUSH1 0x40 MSTORE POP DUP2 ADD SWAP1 PUSH2 0x443 SWAP2 SWAP1 PUSH2 0x1198 JUMP JUMPDEST POP PUSH1 0x0 PUSH2 0x45D PUSH1 0x4 SLOAD PUSH1 0x3 SLOAD PUSH2 0x10A6 SWAP1 SWAP2 SWAP1 PUSH4 0xFFFFFFFF AND JUMP JUMPDEST SWAP1 POP PUSH1 0x7 SLOAD DUP2 LT PUSH2 0x47D JUMPI PUSH1 0x7 SLOAD PUSH2 0x476 SWAP1 DUP3 SWAP1 PUSH2 0x10C5 JUMP JUMPDEST SWAP1 POP PUSH2 0x48D JUMP JUMPDEST PUSH1 0x7 SLOAD PUSH2 0x48A SWAP1 DUP3 PUSH2 0x10C5 JUMP JUMPDEST SWAP1 POP JUMPDEST PUSH2 0x4AF PUSH1 0x1 PUSH2 0x4A9 PUSH1 0x4 SLOAD PUSH1 0x3 SLOAD PUSH2 0x10D1 SWAP1 SWAP2 SWAP1 PUSH4 0xFFFFFFFF AND JUMP JUMPDEST SWAP1 PUSH2 0x10D1 JUMP JUMPDEST DUP2 LT PUSH2 0x4BD JUMPI PUSH2 0x4BD PUSH2 0x11BA JUMP JUMPDEST POP POP POP POP POP POP JUMP JUMPDEST PUSH1 0x0 PUSH2 0x4E6 PUSH1 0x4 SLOAD PUSH2 0x2D8 PUSH1 0x3 SLOAD PUSH4 0x5F5E100 PUSH2 0x10A6 SWAP1 SWAP2 SWAP1 PUSH4 0xFFFFFFFF AND JUMP JUMPDEST SWAP1 POP SWAP1 JUMP JUMPDEST CALLER PUSH1 0x0 SWAP1 DUP2 MSTORE PUSH1 0x5 PUSH1 0x20 MSTORE PUSH1 0x40 SWAP1 KECCAK256 SLOAD PUSH1 0x6 SLOAD GT PUSH2 0x559 JUMPI PUSH1 0x40 MLOAD PUSH3 0x461BCD PUSH1 0xE5 SHL DUP2 MSTORE PUSH1 0x20 PUSH1 0x4 DUP3 ADD MSTORE PUSH1 0x25 PUSH1 0x24 DUP3 ADD MSTORE PUSH32 0x43616E27742068617665206C6173742070726F76696465722077697468647261 PUSH1 0x44 DUP3 ADD MSTORE PUSH5 0x1DC8185B1B PUSH1 0xDA SHL PUSH1 0x64 DUP3 ADD MSTORE PUSH1 0x84 ADD PUSH2 0x37B JUMP JUMPDEST PUSH2 0x561 PUSH2 0x595 JUMP JUMPDEST PUSH1 0x6 SLOAD CALLER PUSH1 0x0 SWAP1 DUP2 MSTORE PUSH1 0x5 PUSH1 0x20 MSTORE PUSH1 0x40 SWAP1 KECCAK256 SLOAD PUSH1 0x4 SLOAD PUSH2 0x591 SWAP3 PUSH2 0x58A SWAP3 SWAP1 SWAP2 PUSH2 0x2D8 SWAP2 PUSH2 0x10A6 JUMP JUMPDEST DUP4 DUP4 PUSH2 0x9FE JUMP JUMPDEST POP POP JUMP JUMPDEST PUSH1 0x4 SLOAD PUSH2 0x5A2 SWAP1 CALLVALUE PUSH2 0x10D1 JUMP JUMPDEST SELFBALANCE GT DUP1 ISZERO PUSH2 0x62B JUMPI POP PUSH1 0x3 SLOAD PUSH1 0x2 SLOAD PUSH1 0x40 MLOAD PUSH4 0x70A08231 PUSH1 0xE0 SHL DUP2 MSTORE ADDRESS PUSH1 0x4 DUP3 ADD MSTORE PUSH1 0x1 PUSH1 0x1 PUSH1 0xA0 SHL SUB SWAP1 SWAP2 AND SWAP1 PUSH4 0x70A08231 SWAP1 PUSH1 0x24 ADD PUSH1 0x20 PUSH1 0x40 MLOAD DUP1 DUP4 SUB DUP2 DUP7 DUP1 EXTCODESIZE ISZERO DUP1 ISZERO PUSH2 0x5F1 JUMPI PUSH1 0x0 DUP1 REVERT JUMPDEST POP GAS STATICCALL ISZERO DUP1 ISZERO PUSH2 0x605 JUMPI RETURNDATASIZE PUSH1 0x0 DUP1 RETURNDATACOPY RETURNDATASIZE PUSH1 0x0 REVERT JUMPDEST POP POP POP POP PUSH1 0x40 MLOAD RETURNDATASIZE PUSH1 0x1F NOT PUSH1 0x1F DUP3 ADD AND DUP3 ADD DUP1 PUSH1 0x40 MSTORE POP DUP2 ADD SWAP1 PUSH2 0x629 SWAP2 SWAP1 PUSH2 0x11D0 JUMP JUMPDEST GT JUMPDEST ISZERO PUSH2 0x793 JUMPI PUSH1 0x3 SLOAD PUSH1 0x2 SLOAD PUSH1 0x40 MLOAD PUSH4 0x70A08231 PUSH1 0xE0 SHL DUP2 MSTORE ADDRESS PUSH1 0x4 DUP3 ADD MSTORE PUSH1 0x0 SWAP3 PUSH2 0x6BD SWAP3 SWAP1 SWAP2 PUSH1 0x1 PUSH1 0x1 PUSH1 0xA0 SHL SUB SWAP1 SWAP2 AND SWAP1 PUSH4 0x70A08231 SWAP1 PUSH1 0x24 ADD PUSH1 0x20 PUSH1 0x40 MLOAD DUP1 DUP4 SUB DUP2 DUP7 DUP1 EXTCODESIZE ISZERO DUP1 ISZERO PUSH2 0x67F JUMPI PUSH1 0x0 DUP1 REVERT JUMPDEST POP GAS STATICCALL ISZERO DUP1 ISZERO PUSH2 0x693 JUMPI RETURNDATASIZE PUSH1 0x0 DUP1 RETURNDATACOPY RETURNDATASIZE PUSH1 0x0 REVERT JUMPDEST POP POP POP POP PUSH1 0x40 MLOAD RETURNDATASIZE PUSH1 0x1F NOT PUSH1 0x1F DUP3 ADD AND DUP3 ADD DUP1 PUSH1 0x40 MSTORE POP DUP2 ADD SWAP1 PUSH2 0x6B7 SWAP2 SWAP1 PUSH2 0x11D0 JUMP JUMPDEST SWAP1 PUSH2 0x10C5 JUMP JUMPDEST SWAP1 POP PUSH1 0x0 PUSH2 0x6DA PUSH1 0x4 SLOAD PUSH2 0x6B7 CALLVALUE SELFBALANCE PUSH2 0x10C5 SWAP1 SWAP2 SWAP1 PUSH4 0xFFFFFFFF AND JUMP JUMPDEST SWAP1 POP PUSH1 0x0 PUSH2 0x6F8 PUSH4 0x5F5E100 PUSH2 0x2D8 PUSH2 0x6F1 PUSH2 0x1085 JUMP JUMPDEST DUP7 SWAP1 PUSH2 0x10A6 JUMP JUMPDEST SWAP1 POP PUSH1 0x0 DUP2 DUP4 LT PUSH2 0x70A JUMPI POP DUP3 PUSH2 0x723 JUMP JUMPDEST DUP3 SWAP2 POP PUSH2 0x720 PUSH4 0x5F5E100 PUSH2 0x2D8 PUSH2 0x6F1 PUSH2 0x4C5 JUMP JUMPDEST SWAP1 POP JUMPDEST PUSH1 0x4 SLOAD PUSH2 0x730 SWAP1 DUP4 PUSH2 0x10D1 JUMP JUMPDEST PUSH1 0x4 SSTORE PUSH1 0x3 SLOAD PUSH2 0x740 SWAP1 DUP3 PUSH2 0x10D1 JUMP JUMPDEST PUSH1 0x3 DUP2 SWAP1 SSTORE PUSH1 0x4 SLOAD PUSH2 0x751 SWAP2 PUSH2 0x10A6 JUMP JUMPDEST PUSH1 0x7 SSTORE PUSH1 0x40 DUP1 MLOAD DUP4 DUP2 MSTORE PUSH1 0x20 DUP2 ADD DUP4 SWAP1 MSTORE PUSH32 0x61D66D8767FF702762E19C18B3CF4A23E2EEF70B62FDE2720244871BA6D796C7 SWAP2 ADD JUMPDEST PUSH1 0x40 MLOAD DUP1 SWAP2 SUB SWAP1 LOG1 POP POP POP POP JUMPDEST JUMP JUMPDEST PUSH1 0x0 SLOAD PUSH1 0x1 PUSH1 0x1 PUSH1 0xA0 SHL SUB AND CALLER EQ PUSH2 0x7F9 JUMPI PUSH1 0x40 MLOAD PUSH3 0x461BCD PUSH1 0xE5 SHL DUP2 MSTORE PUSH1 0x20 PUSH1 0x4 DUP3 ADD MSTORE PUSH1 0x21 PUSH1 0x24 DUP3 ADD MSTORE PUSH32 0x4F6E6C792061646D696E2063616E2075736520746869732066756E6374696F6E PUSH1 0x44 DUP3 ADD MSTORE PUSH1 0x21 PUSH1 0xF8 SHL PUSH1 0x64 DUP3 ADD MSTORE PUSH1 0x84 ADD PUSH2 0x37B JUMP JUMPDEST PUSH1 0x3 SLOAD ISZERO PUSH2 0x849 JUMPI PUSH1 0x40 MLOAD PUSH3 0x461BCD PUSH1 0xE5 SHL DUP2 MSTORE PUSH1 0x20 PUSH1 0x4 DUP3 ADD MSTORE PUSH1 0x18 PUSH1 0x24 DUP3 ADD MSTORE PUSH32 0x546F6B656E20726573657276657320776173206E6F7420300000000000000000 PUSH1 0x44 DUP3 ADD MSTORE PUSH1 0x64 ADD PUSH2 0x37B JUMP JUMPDEST PUSH1 0x4 SLOAD ISZERO PUSH2 0x899 JUMPI PUSH1 0x40 MLOAD PUSH3 0x461BCD PUSH1 0xE5 SHL DUP2 MSTORE PUSH1 0x20 PUSH1 0x4 DUP3 ADD MSTORE PUSH1 0x17 PUSH1 0x24 DUP3 ADD MSTORE PUSH32 0x45544820726573657276657320776173206E6F7420302E000000000000000000 PUSH1 0x44 DUP3 ADD MSTORE PUSH1 0x64 ADD PUSH2 0x37B JUMP JUMPDEST PUSH1 0x0 CALLVALUE GT PUSH2 0x8E9 JUMPI PUSH1 0x40 MLOAD PUSH3 0x461BCD PUSH1 0xE5 SHL DUP2 MSTORE PUSH1 0x20 PUSH1 0x4 DUP3 ADD MSTORE PUSH1 0x18 PUSH1 0x24 DUP3 ADD MSTORE PUSH32 0x4E6565642045544820746F2063726561746520706F6F6C2E0000000000000000 PUSH1 0x44 DUP3 ADD MSTORE PUSH1 0x64 ADD PUSH2 0x37B JUMP JUMPDEST PUSH1 0x0 DUP2 GT PUSH2 0x939 JUMPI PUSH1 0x40 MLOAD PUSH3 0x461BCD PUSH1 0xE5 SHL DUP2 MSTORE PUSH1 0x20 PUSH1 0x4 DUP3 ADD MSTORE PUSH1 0x1B PUSH1 0x24 DUP3 ADD MSTORE PUSH32 0x4E65656420746F6B656E7320746F2063726561746520706F6F6C2E0000000000 PUSH1 0x44 DUP3 ADD MSTORE PUSH1 0x64 ADD PUSH2 0x37B JUMP JUMPDEST PUSH2 0x947 PUSH4 0x5F5E100 CALLVALUE PUSH2 0x10A6 JUMP JUMPDEST PUSH1 0x6 DUP2 SWAP1 SSTORE CALLER PUSH1 0x0 SWAP1 DUP2 MSTORE PUSH1 0x5 PUSH1 0x20 MSTORE PUSH1 0x40 SWAP1 KECCAK256 SSTORE CALLVALUE PUSH1 0x4 DUP2 SWAP1 SSTORE PUSH1 0x3 DUP3 SWAP1 SSTORE PUSH2 0x971 SWAP1 DUP3 PUSH2 0x10A6 JUMP JUMPDEST PUSH1 0x7 SSTORE PUSH1 0x2 SLOAD PUSH1 0x40 MLOAD PUSH4 0x23B872DD PUSH1 0xE0 SHL DUP2 MSTORE CALLER PUSH1 0x4 DUP3 ADD MSTORE ADDRESS PUSH1 0x24 DUP3 ADD MSTORE PUSH1 0x44 DUP2 ADD DUP4 SWAP1 MSTORE PUSH1 0x1 PUSH1 0x1 PUSH1 0xA0 SHL SUB SWAP1 SWAP2 AND SWAP1 PUSH4 0x23B872DD SWAP1 PUSH1 0x64 ADD PUSH1 0x20 PUSH1 0x40 MLOAD DUP1 DUP4 SUB DUP2 PUSH1 0x0 DUP8 DUP1 EXTCODESIZE ISZERO DUP1 ISZERO PUSH2 0x9C6 JUMPI PUSH1 0x0 DUP1 REVERT JUMPDEST POP GAS CALL ISZERO DUP1 ISZERO PUSH2 0x9DA JUMPI RETURNDATASIZE PUSH1 0x0 DUP1 RETURNDATACOPY RETURNDATASIZE PUSH1 0x0 REVERT JUMPDEST POP POP POP POP PUSH1 0x40 MLOAD RETURNDATASIZE PUSH1 0x1F NOT PUSH1 0x1F DUP3 ADD AND DUP3 ADD DUP1 PUSH1 0x40 MSTORE POP DUP2 ADD SWAP1 PUSH2 0x591 SWAP2 SWAP1 PUSH2 0x1198 JUMP JUMPDEST PUSH1 0x0 DUP4 GT PUSH2 0xA42 JUMPI PUSH1 0x40 MLOAD PUSH3 0x461BCD PUSH1 0xE5 SHL DUP2 MSTORE PUSH1 0x20 PUSH1 0x4 DUP3 ADD MSTORE PUSH1 0x11 PUSH1 0x24 DUP3 ADD MSTORE PUSH17 0x4E6F7468696E6720746F2072656D6F7665 PUSH1 0x78 SHL PUSH1 0x44 DUP3 ADD MSTORE PUSH1 0x64 ADD PUSH2 0x37B JUMP JUMPDEST PUSH2 0xA4A PUSH2 0x595 JUMP JUMPDEST DUP1 PUSH2 0xA53 PUSH2 0x4C5 JUMP JUMPDEST LT ISZERO DUP1 ISZERO PUSH2 0xA68 JUMPI POP DUP2 PUSH2 0xA65 PUSH2 0x4C5 JUMP JUMPDEST GT ISZERO JUMPDEST PUSH2 0xA84 JUMPI PUSH1 0x40 MLOAD PUSH3 0x461BCD PUSH1 0xE5 SHL DUP2 MSTORE PUSH1 0x4 ADD PUSH2 0x37B SWAP1 PUSH2 0x116D JUMP JUMPDEST PUSH1 0x0 PUSH2 0xAA0 PUSH4 0x5F5E100 PUSH2 0x2D8 PUSH2 0xA99 PUSH2 0x4C5 JUMP JUMPDEST DUP8 SWAP1 PUSH2 0x10A6 JUMP JUMPDEST SWAP1 POP PUSH1 0x0 PUSH2 0xABF PUSH1 0x4 SLOAD PUSH2 0x2D8 DUP8 PUSH1 0x6 SLOAD PUSH2 0x10A6 SWAP1 SWAP2 SWAP1 PUSH4 0xFFFFFFFF AND JUMP JUMPDEST SWAP1 POP DUP5 PUSH1 0x4 SLOAD GT DUP1 ISZERO PUSH2 0xAD3 JUMPI POP DUP2 PUSH1 0x3 SLOAD GT JUMPDEST DUP1 ISZERO PUSH2 0xAEE JUMPI POP CALLER PUSH1 0x0 SWAP1 DUP2 MSTORE PUSH1 0x5 PUSH1 0x20 MSTORE PUSH1 0x40 SWAP1 KECCAK256 SLOAD DUP2 GT ISZERO JUMPDEST PUSH2 0xB4B JUMPI PUSH1 0x40 MLOAD PUSH3 0x461BCD PUSH1 0xE5 SHL DUP2 MSTORE PUSH1 0x20 PUSH1 0x4 DUP3 ADD MSTORE PUSH1 0x28 PUSH1 0x24 DUP3 ADD MSTORE PUSH32 0x547279696E6720746F2072656D6F7665206D6F7265207468616E206D61782061 PUSH1 0x44 DUP3 ADD MSTORE PUSH8 0x7661696C61626C65 PUSH1 0xC0 SHL PUSH1 0x64 DUP3 ADD MSTORE PUSH1 0x84 ADD PUSH2 0x37B JUMP JUMPDEST CALLER PUSH1 0x0 SWAP1 DUP2 MSTORE PUSH1 0x5 PUSH1 0x20 MSTORE PUSH1 0x40 SWAP1 KECCAK256 SLOAD PUSH2 0xB65 SWAP1 DUP3 PUSH2 0x10C5 JUMP JUMPDEST CALLER PUSH1 0x0 SWAP1 DUP2 MSTORE PUSH1 0x5 PUSH1 0x20 MSTORE PUSH1 0x40 SWAP1 KECCAK256 SSTORE PUSH1 0x6 SLOAD PUSH2 0xB82 SWAP1 DUP3 PUSH2 0x10C5 JUMP JUMPDEST PUSH1 0x6 SSTORE PUSH1 0x4 SLOAD PUSH2 0xB92 SWAP1 DUP7 PUSH2 0x10C5 JUMP JUMPDEST PUSH1 0x4 SSTORE PUSH1 0x3 SLOAD PUSH2 0xBA2 SWAP1 DUP4 PUSH2 0x10C5 JUMP JUMPDEST PUSH1 0x3 DUP2 SWAP1 SSTORE PUSH1 0x4 SLOAD PUSH2 0xBB3 SWAP2 PUSH2 0x10A6 JUMP JUMPDEST PUSH1 0x7 SSTORE PUSH1 0x2 SLOAD PUSH1 0x40 MLOAD PUSH4 0xA9059CBB PUSH1 0xE0 SHL DUP2 MSTORE CALLER PUSH1 0x4 DUP3 ADD MSTORE PUSH1 0x24 DUP2 ADD DUP5 SWAP1 MSTORE PUSH1 0x1 PUSH1 0x1 PUSH1 0xA0 SHL SUB SWAP1 SWAP2 AND SWAP1 PUSH4 0xA9059CBB SWAP1 PUSH1 0x44 ADD PUSH1 0x20 PUSH1 0x40 MLOAD DUP1 DUP4 SUB DUP2 PUSH1 0x0 DUP8 DUP1 EXTCODESIZE ISZERO DUP1 ISZERO PUSH2 0xC02 JUMPI PUSH1 0x0 DUP1 REVERT JUMPDEST POP GAS CALL ISZERO DUP1 ISZERO PUSH2 0xC16 JUMPI RETURNDATASIZE PUSH1 0x0 DUP1 RETURNDATACOPY RETURNDATASIZE PUSH1 0x0 REVERT JUMPDEST POP POP POP POP PUSH1 0x40 MLOAD RETURNDATASIZE PUSH1 0x1F NOT PUSH1 0x1F DUP3 ADD AND DUP3 ADD DUP1 PUSH1 0x40 MSTORE POP DUP2 ADD SWAP1 PUSH2 0xC3A SWAP2 SWAP1 PUSH2 0x1198 JUMP JUMPDEST POP PUSH1 0x40 MLOAD CALLER SWAP1 DUP7 ISZERO PUSH2 0x8FC MUL SWAP1 DUP8 SWAP1 PUSH1 0x0 DUP2 DUP2 DUP2 DUP6 DUP9 DUP9 CALL SWAP4 POP POP POP POP ISZERO DUP1 ISZERO PUSH2 0xC68 JUMPI RETURNDATASIZE PUSH1 0x0 DUP1 RETURNDATACOPY RETURNDATASIZE PUSH1 0x0 REVERT JUMPDEST POP PUSH1 0x40 DUP1 MLOAD CALLER DUP2 MSTORE PUSH1 0x20 DUP2 ADD DUP8 SWAP1 MSTORE PUSH32 0xDFDD120DED9B7AFC0C23DD5310E93AAA3E1C3B9F75AF9B805FAB3030842439F2 SWAP2 ADD PUSH1 0x40 MLOAD DUP1 SWAP2 SUB SWAP1 LOG1 POP POP POP POP POP JUMP JUMPDEST PUSH2 0xCB1 PUSH2 0x595 JUMP JUMPDEST DUP1 PUSH2 0xCBA PUSH2 0x4C5 JUMP JUMPDEST LT ISZERO DUP1 ISZERO PUSH2 0xCCF JUMPI POP DUP2 PUSH2 0xCCC PUSH2 0x4C5 JUMP JUMPDEST GT ISZERO JUMPDEST PUSH2 0xCEB JUMPI PUSH1 0x40 MLOAD PUSH3 0x461BCD PUSH1 0xE5 SHL DUP2 MSTORE PUSH1 0x4 ADD PUSH2 0x37B SWAP1 PUSH2 0x116D JUMP JUMPDEST PUSH1 0x0 PUSH2 0xD07 PUSH4 0x5F5E100 PUSH2 0x2D8 PUSH2 0xD00 PUSH2 0x4C5 JUMP JUMPDEST CALLVALUE SWAP1 PUSH2 0x10A6 JUMP JUMPDEST SWAP1 POP PUSH1 0x0 PUSH2 0xD26 PUSH1 0x4 SLOAD PUSH2 0x2D8 CALLVALUE PUSH1 0x6 SLOAD PUSH2 0x10A6 SWAP1 SWAP2 SWAP1 PUSH4 0xFFFFFFFF AND JUMP JUMPDEST CALLER PUSH1 0x0 SWAP1 DUP2 MSTORE PUSH1 0x5 PUSH1 0x20 MSTORE PUSH1 0x40 SWAP1 KECCAK256 SLOAD SWAP1 SWAP2 POP PUSH2 0xD43 SWAP1 DUP3 PUSH2 0x10D1 JUMP JUMPDEST CALLER PUSH1 0x0 SWAP1 DUP2 MSTORE PUSH1 0x5 PUSH1 0x20 MSTORE PUSH1 0x40 SWAP1 KECCAK256 SSTORE PUSH1 0x6 SLOAD PUSH2 0xD60 SWAP1 DUP3 PUSH2 0x10D1 JUMP JUMPDEST PUSH1 0x6 SSTORE PUSH1 0x4 SLOAD PUSH2 0xD70 SWAP1 CALLVALUE PUSH2 0x10D1 JUMP JUMPDEST PUSH1 0x4 SSTORE PUSH1 0x3 SLOAD PUSH2 0xD80 SWAP1 DUP4 PUSH2 0x10D1 JUMP JUMPDEST PUSH1 0x3 DUP2 SWAP1 SSTORE PUSH1 0x4 SLOAD PUSH2 0xD91 SWAP2 PUSH2 0x10A6 JUMP JUMPDEST PUSH1 0x7 SSTORE PUSH1 0x2 SLOAD PUSH1 0x40 MLOAD PUSH4 0x23B872DD PUSH1 0xE0 SHL DUP2 MSTORE CALLER PUSH1 0x4 DUP3 ADD MSTORE ADDRESS PUSH1 0x24 DUP3 ADD MSTORE PUSH1 0x44 DUP2 ADD DUP5 SWAP1 MSTORE PUSH1 0x1 PUSH1 0x1 PUSH1 0xA0 SHL SUB SWAP1 SWAP2 AND SWAP1 PUSH4 0x23B872DD SWAP1 PUSH1 0x64 ADD PUSH1 0x20 PUSH1 0x40 MLOAD DUP1 DUP4 SUB DUP2 PUSH1 0x0 DUP8 DUP1 EXTCODESIZE ISZERO DUP1 ISZERO PUSH2 0xDE6 JUMPI PUSH1 0x0 DUP1 REVERT JUMPDEST POP GAS CALL ISZERO DUP1 ISZERO PUSH2 0xDFA JUMPI RETURNDATASIZE PUSH1 0x0 DUP1 RETURNDATACOPY RETURNDATASIZE PUSH1 0x0 REVERT JUMPDEST POP POP POP POP PUSH1 0x40 MLOAD RETURNDATASIZE PUSH1 0x1F NOT PUSH1 0x1F DUP3 ADD AND DUP3 ADD DUP1 PUSH1 0x40 MSTORE POP DUP2 ADD SWAP1 PUSH2 0xE1E SWAP2 SWAP1 PUSH2 0x1198 JUMP JUMPDEST POP PUSH1 0x40 DUP1 MLOAD CALLER DUP2 MSTORE CALLVALUE PUSH1 0x20 DUP3 ADD MSTORE PUSH32 0xBB37879E252460856212DC4E8C6EDF174E473DF9423E3A7FECCD21F8C28D587A SWAP2 ADD PUSH2 0x786 JUMP JUMPDEST PUSH1 0x0 PUSH2 0xE7B PUSH2 0xE74 PUSH1 0x9 SLOAD PUSH2 0x2D8 PUSH1 0x8 SLOAD DUP8 PUSH2 0x10A6 SWAP1 SWAP2 SWAP1 PUSH4 0xFFFFFFFF AND JUMP JUMPDEST DUP5 SWAP1 PUSH2 0x10C5 JUMP JUMPDEST SWAP1 POP PUSH1 0x0 PUSH2 0xE94 DUP3 PUSH1 0x3 SLOAD PUSH2 0x10D1 SWAP1 SWAP2 SWAP1 PUSH4 0xFFFFFFFF AND JUMP JUMPDEST SWAP1 POP PUSH1 0x0 PUSH2 0xEAD DUP3 PUSH1 0x7 SLOAD PUSH2 0x10B9 SWAP1 SWAP2 SWAP1 PUSH4 0xFFFFFFFF AND JUMP JUMPDEST SWAP1 POP PUSH1 0x0 PUSH2 0xEC6 DUP3 PUSH1 0x4 SLOAD PUSH2 0x10C5 SWAP1 SWAP2 SWAP1 PUSH4 0xFFFFFFFF AND JUMP JUMPDEST SWAP1 POP DUP1 PUSH1 0x4 SLOAD GT PUSH2 0xF15 JUMPI PUSH1 0x40 MLOAD PUSH3 0x461BCD PUSH1 0xE5 SHL DUP2 MSTORE PUSH1 0x20 PUSH1 0x4 DUP3 ADD MSTORE PUSH1 0x19 PUSH1 0x24 DUP3 ADD MSTORE PUSH25 0x151A1A5CC81DDBDD5B1908191C985A5B881D1A19481C1BDBDB PUSH1 0x3A SHL PUSH1 0x44 DUP3 ADD MSTORE PUSH1 0x64 ADD PUSH2 0x37B JUMP JUMPDEST PUSH2 0xF27 PUSH4 0x5F5E100 PUSH2 0x2D8 DUP8 DUP8 PUSH2 0x10A6 JUMP JUMPDEST DUP2 LT ISZERO PUSH2 0xF46 JUMPI PUSH1 0x40 MLOAD PUSH3 0x461BCD PUSH1 0xE5 SHL DUP2 MSTORE PUSH1 0x4 ADD PUSH2 0x37B SWAP1 PUSH2 0x116D JUMP JUMPDEST PUSH1 0x4 DUP3 DUP2 SSTORE PUSH1 0x3 DUP5 SWAP1 SSTORE PUSH1 0x2 SLOAD PUSH1 0x40 MLOAD PUSH4 0x23B872DD PUSH1 0xE0 SHL DUP2 MSTORE CALLER SWAP3 DUP2 ADD SWAP3 SWAP1 SWAP3 MSTORE ADDRESS PUSH1 0x24 DUP4 ADD MSTORE PUSH1 0x44 DUP3 ADD DUP9 SWAP1 MSTORE PUSH1 0x1 PUSH1 0x1 PUSH1 0xA0 SHL SUB AND SWAP1 PUSH4 0x23B872DD SWAP1 PUSH1 0x64 ADD PUSH1 0x20 PUSH1 0x40 MLOAD DUP1 DUP4 SUB DUP2 PUSH1 0x0 DUP8 DUP1 EXTCODESIZE ISZERO DUP1 ISZERO PUSH2 0xFA2 JUMPI PUSH1 0x0 DUP1 REVERT JUMPDEST POP GAS CALL ISZERO DUP1 ISZERO PUSH2 0xFB6 JUMPI RETURNDATASIZE PUSH1 0x0 DUP1 RETURNDATACOPY RETURNDATASIZE PUSH1 0x0 REVERT JUMPDEST POP POP POP POP PUSH1 0x40 MLOAD RETURNDATASIZE PUSH1 0x1F NOT PUSH1 0x1F DUP3 ADD AND DUP3 ADD DUP1 PUSH1 0x40 MSTORE POP DUP2 ADD SWAP1 PUSH2 0xFDA SWAP2 SWAP1 PUSH2 0x1198 JUMP JUMPDEST POP PUSH1 0x40 MLOAD CALLER SWAP1 DUP3 ISZERO PUSH2 0x8FC MUL SWAP1 DUP4 SWAP1 PUSH1 0x0 DUP2 DUP2 DUP2 DUP6 DUP9 DUP9 CALL SWAP4 POP POP POP POP ISZERO DUP1 ISZERO PUSH2 0x1008 JUMPI RETURNDATASIZE PUSH1 0x0 DUP1 RETURNDATACOPY RETURNDATASIZE PUSH1 0x0 REVERT JUMPDEST POP PUSH1 0x0 PUSH2 0x1022 PUSH1 0x4 SLOAD PUSH1 0x3 SLOAD PUSH2 0x10A6 SWAP1 SWAP2 SWAP1 PUSH4 0xFFFFFFFF AND JUMP JUMPDEST SWAP1 POP PUSH1 0x7 SLOAD DUP2 LT PUSH2 0x1042 JUMPI PUSH1 0x7 SLOAD PUSH2 0x103B SWAP1 DUP3 SWAP1 PUSH2 0x10C5 JUMP JUMPDEST SWAP1 POP PUSH2 0x1052 JUMP JUMPDEST PUSH1 0x7 SLOAD PUSH2 0x104F SWAP1 DUP3 PUSH2 0x10C5 JUMP JUMPDEST SWAP1 POP JUMPDEST PUSH2 0x106E PUSH1 0x1 PUSH2 0x4A9 PUSH1 0x4 SLOAD PUSH1 0x3 SLOAD PUSH2 0x10D1 SWAP1 SWAP2 SWAP1 PUSH4 0xFFFFFFFF AND JUMP JUMPDEST DUP2 LT PUSH2 0x107C JUMPI PUSH2 0x107C PUSH2 0x11BA JUMP JUMPDEST POP POP POP POP POP POP POP JUMP JUMPDEST PUSH1 0x0 PUSH2 0x4E6 PUSH1 0x3 SLOAD PUSH2 0x2D8 PUSH1 0x4 SLOAD PUSH4 0x5F5E100 PUSH2 0x10A6 SWAP1 SWAP2 SWAP1 PUSH4 0xFFFFFFFF AND JUMP JUMPDEST PUSH1 0x0 PUSH2 0x10B2 DUP3 DUP5 PUSH2 0x11FF JUMP JUMPDEST SWAP4 SWAP3 POP POP POP JUMP JUMPDEST PUSH1 0x0 PUSH2 0x10B2 DUP3 DUP5 PUSH2 0x121E JUMP JUMPDEST PUSH1 0x0 PUSH2 0x10B2 DUP3 DUP5 PUSH2 0x1240 JUMP JUMPDEST PUSH1 0x0 PUSH2 0x10B2 DUP3 DUP5 PUSH2 0x1257 JUMP JUMPDEST PUSH1 0x0 PUSH1 0x20 DUP3 DUP5 SUB SLT ISZERO PUSH2 0x10EF JUMPI PUSH1 0x0 DUP1 REVERT JUMPDEST POP CALLDATALOAD SWAP2 SWAP1 POP JUMP JUMPDEST PUSH1 0x0 DUP1 PUSH1 0x40 DUP4 DUP6 SUB SLT ISZERO PUSH2 0x1109 JUMPI PUSH1 0x0 DUP1 REVERT JUMPDEST POP POP DUP1 CALLDATALOAD SWAP3 PUSH1 0x20 SWAP1 SWAP2 ADD CALLDATALOAD SWAP2 POP JUMP JUMPDEST PUSH1 0x0 DUP1 PUSH1 0x0 PUSH1 0x60 DUP5 DUP7 SUB SLT ISZERO PUSH2 0x112D JUMPI PUSH1 0x0 DUP1 REVERT JUMPDEST POP POP DUP2 CALLDATALOAD SWAP4 PUSH1 0x20 DUP4 ADD CALLDATALOAD SWAP4 POP PUSH1 0x40 SWAP1 SWAP3 ADD CALLDATALOAD SWAP2 SWAP1 POP JUMP JUMPDEST PUSH1 0x0 PUSH1 0x20 DUP3 DUP5 SUB SLT ISZERO PUSH2 0x1156 JUMPI PUSH1 0x0 DUP1 REVERT JUMPDEST DUP2 CALLDATALOAD PUSH1 0x1 PUSH1 0x1 PUSH1 0xA0 SHL SUB DUP2 AND DUP2 EQ PUSH2 0x10B2 JUMPI PUSH1 0x0 DUP1 REVERT JUMPDEST PUSH1 0x20 DUP1 DUP3 MSTORE PUSH1 0x11 SWAP1 DUP3 ADD MSTORE PUSH17 0xA6D8D2E0E0C2CECA40E8DEDE40D0D2CED PUSH1 0x7B SHL PUSH1 0x40 DUP3 ADD MSTORE PUSH1 0x60 ADD SWAP1 JUMP JUMPDEST PUSH1 0x0 PUSH1 0x20 DUP3 DUP5 SUB SLT ISZERO PUSH2 0x11AA JUMPI PUSH1 0x0 DUP1 REVERT JUMPDEST DUP2 MLOAD DUP1 ISZERO ISZERO DUP2 EQ PUSH2 0x10B2 JUMPI PUSH1 0x0 DUP1 REVERT JUMPDEST PUSH4 0x4E487B71 PUSH1 0xE0 SHL PUSH1 0x0 MSTORE PUSH1 0x1 PUSH1 0x4 MSTORE PUSH1 0x24 PUSH1 0x0 REVERT JUMPDEST PUSH1 0x0 PUSH1 0x20 DUP3 DUP5 SUB SLT ISZERO PUSH2 0x11E2 JUMPI PUSH1 0x0 DUP1 REVERT JUMPDEST POP MLOAD SWAP2 SWAP1 POP JUMP JUMPDEST PUSH4 0x4E487B71 PUSH1 0xE0 SHL PUSH1 0x0 MSTORE PUSH1 0x11 PUSH1 0x4 MSTORE PUSH1 0x24 PUSH1 0x0 REVERT JUMPDEST PUSH1 0x0 DUP2 PUSH1 0x0 NOT DIV DUP4 GT DUP3 ISZERO ISZERO AND ISZERO PUSH2 0x1219 JUMPI PUSH2 0x1219 PUSH2 0x11E9 JUMP JUMPDEST POP MUL SWAP1 JUMP JUMPDEST PUSH1 0x0 DUP3 PUSH2 0x123B JUMPI PUSH4 0x4E487B71 PUSH1 0xE0 SHL PUSH1 0x0 MSTORE PUSH1 0x12 PUSH1 0x4 MSTORE PUSH1 0x24 PUSH1 0x0 REVERT JUMPDEST POP DIV SWAP1 JUMP JUMPDEST PUSH1 0x0 DUP3 DUP3 LT ISZERO PUSH2 0x1252 JUMPI PUSH2 0x1252 PUSH2 0x11E9 JUMP JUMPDEST POP SUB SWAP1 JUMP JUMPDEST PUSH1 0x0 DUP3 NOT DUP3 GT ISZERO PUSH2 0x126A JUMPI PUSH2 0x126A PUSH2 0x11E9 JUMP JUMPDEST POP ADD SWAP1 JUMP INVALID LOG2 PUSH5 0x6970667358 0x22 SLT KECCAK256 SLT 0xAD PUSH2 0xF32 0xBF MSTORE PUSH1 0xD5 0xE0 SLT TIMESTAMP CALLDATACOPY 0xA7 0xA6 0xEB SWAP11 0xEB PUSH27 0x3678E70343201B2F06046086A664736F6C63430008090033000000 "
		},
		"gasEstimates": {
			"creation": {
				"codeDepositCost": "954600",
				"executionCost": "127919",
				"totalCost": "1082519"
			},
			"external": {
				"": "185",
				"addLiquidity(uint256,uint256)": "infinite",
				"admin()": "2425",
				"createPool(uint256)": "infinite",
				"decimalization()": "208",
				"eth_reserves()": "2307",
				"k()": "2328",
				"poolLP(address)": "2518",
				"priceETH()": "infinite",
				"priceToken()": "infinite",
				"reinvestFees()": "infinite",
				"removeAllLiquidity(uint256,uint256)": "infinite",
				"removeLiquidity(uint256,uint256,uint256)": "infinite",
				"swapETHForTokens(uint256)": "infinite",
				"swapTokensForETH(uint256,uint256)": "infinite",
				"token_reserves()": "2351",
				"totalLP()": "2330"
			}
		},
		"methodIdentifiers": {
			"addLiquidity(uint256,uint256)": "9cd441da",
			"admin()": "f851a440",
			"createPool(uint256)": "8259e6a0",
			"decimalization()": "0b32772b",
			"eth_reserves()": "97ba499f",
			"k()": "b4f40c61",
			"poolLP(address)": "97c82884",
			"priceETH()": "c38ad273",
			"priceToken()": "2ff6fe76",
			"reinvestFees()": "7b1870d6",
			"removeAllLiquidity(uint256,uint256)": "58ad6de4",
			"removeLiquidity(uint256,uint256,uint256)": "857620e1",
			"swapETHForTokens(uint256)": "2eab2841",
			"swapTokensForETH(uint256,uint256)": "a22280a6",
			"token_reserves()": "9adb3b97",
			"totalLP()": "132c4feb"
		}
	},
	"abi": [
		{
			"inputs": [],
			"stateMutability": "nonpayable",
			"type": "constructor"
		},
		{
			"anonymous": false,
			"inputs": [
				{
					"indexed": false,
					"internalType": "address",
					"name": "from",
					"type": "address"
				},
				{
					"indexed": false,
					"internalType": "uint256",
					"name": "amount",
					"type": "uint256"
				}
			],
			"name": "AddLiquidity",
			"type": "event"
		},
		{
			"anonymous": false,
			"inputs": [
				{
					"indexed": false,
					"internalType": "address",
					"name": "from",
					"type": "address"
				},
				{
					"indexed": false,
					"internalType": "uint256",
					"name": "amountETH",
					"type": "uint256"
				}
			],
			"name": "Received",
			"type": "event"
		},
		{
			"anonymous": false,
			"inputs": [
				{
					"indexed": false,
					"internalType": "uint256",
					"name": "amountETH",
					"type": "uint256"
				},
				{
					"indexed": false,
					"internalType": "uint256",
					"name": "amountToken",
					"type": "uint256"
				}
			],
			"name": "Reinvested",
			"type": "event"
		},
		{
			"anonymous": false,
			"inputs": [
				{
					"indexed": false,
					"internalType": "address",
					"name": "to",
					"type": "address"
				},
				{
					"indexed": false,
					"internalType": "uint256",
					"name": "amount",
					"type": "uint256"
				}
			],
			"name": "RemoveLiquidity",
			"type": "event"
		},
		{
			"stateMutability": "payable",
			"type": "fallback"
		},
		{
			"inputs": [
				{
					"internalType": "uint256",
					"name": "max_exchange_rate",
					"type": "uint256"
				},
				{
					"internalType": "uint256",
					"name": "min_exchange_rate",
					"type": "uint256"
				}
			],
			"name": "addLiquidity",
			"outputs": [],
			"stateMutability": "payable",
			"type": "function"
		},
		{
			"inputs": [],
			"name": "admin",
			"outputs": [
				{
					"internalType": "address",
					"name": "",
					"type": "address"
				}
			],
			"stateMutability": "view",
			"type": "function"
		},
		{
			"inputs": [
				{
					"internalType": "uint256",
					"name": "amountTokens",
					"type": "uint256"
				}
			],
			"name": "createPool",
			"outputs": [],
			"stateMutability": "payable",
			"type": "function"
		},
		{
			"inputs": [],
			"name": "decimalization",
			"outputs": [
				{
					"internalType": "uint256",
					"name": "",
					"type": "uint256"
				}
			],
			"stateMutability": "view",
			"type": "function"
		},
		{
			"inputs": [],
			"name": "eth_reserves",
			"outputs": [
				{
					"internalType": "uint256",
					"name": "",
					"type": "uint256"
				}
			],
			"stateMutability": "view",
			"type": "function"
		},
		{
			"inputs": [],
			"name": "k",
			"outputs": [
				{
					"internalType": "uint256",
					"name": "",
					"type": "uint256"
				}
			],
			"stateMutability": "view",
			"type": "function"
		},
		{
			"inputs": [
				{
					"internalType": "address",
					"name": "",
					"type": "address"
				}
			],
			"name": "poolLP",
			"outputs": [
				{
					"internalType": "uint256",
					"name": "",
					"type": "uint256"
				}
			],
			"stateMutability": "view",
			"type": "function"
		},
		{
			"inputs": [],
			"name": "priceETH",
			"outputs": [
				{
					"internalType": "uint256",
					"name": "",
					"type": "uint256"
				}
			],
			"stateMutability": "view",
			"type": "function"
		},
		{
			"inputs": [],
			"name": "priceToken",
			"outputs": [
				{
					"internalType": "uint256",
					"name": "",
					"type": "uint256"
				}
			],
			"stateMutability": "view",
			"type": "function"
		},
		{
			"inputs": [],
			"name": "reinvestFees",
			"outputs": [],
			"stateMutability": "payable",
			"type": "function"
		},
		{
			"inputs": [
				{
					"internalType": "uint256",
					"name": "max_exchange_rate",
					"type": "uint256"
				},
				{
					"internalType": "uint256",
					"name": "min_exchange_rate",
					"type": "uint256"
				}
			],
			"name": "removeAllLiquidity",
			"outputs": [],
			"stateMutability": "payable",
			"type": "function"
		},
		{
			"inputs": [
				{
					"internalType": "uint256",
					"name": "amountETH",
					"type": "uint256"
				},
				{
					"internalType": "uint256",
					"name": "max_exchange_rate",
					"type": "uint256"
				},
				{
					"internalType": "uint256",
					"name": "min_exchange_rate",
					"type": "uint256"
				}
			],
			"name": "removeLiquidity",
			"outputs": [],
			"stateMutability": "payable",
			"type": "function"
		},
		{
			"inputs": [
				{
					"internalType": "uint256",
					"name": "max_exchange_rate",
					"type": "uint256"
				}
			],
			"name": "swapETHForTokens",
			"outputs": [],
			"stateMutability": "payable",
			"type": "function"
		},
		{
			"inputs": [
				{
					"internalType": "uint256",
					"name": "amountTokens",
					"type": "uint256"
				},
				{
					"internalType": "uint256",
					"name": "max_exchange_rate",
					"type": "uint256"
				}
			],
			"name": "swapTokensForETH",
			"outputs": [],
			"stateMutability": "payable",
			"type": "function"
		},
		{
			"inputs": [],
			"name": "token_reserves",
			"outputs": [
				{
					"internalType": "uint256",
					"name": "",
					"type": "uint256"
				}
			],
			"stateMutability": "view",
			"type": "function"
		},
		{
			"inputs": [],
			"name": "totalLP",
			"outputs": [
				{
					"internalType": "uint256",
					"name": "",
					"type": "uint256"
				}
			],
			"stateMutability": "view",
			"type": "function"
		},
		{
			"stateMutability": "payable",
			"type": "receive"
		}
	]
}