{
	"data": {
		"bytecode": {
			"linkReferences": {},
			"object": "608060405234801561001057600080fd5b506106c5806100206000396000f3fe608060405234801561001057600080fd5b50600436106100365760003560e01c8063713584a61461003b5780637a8790b414610091575b600080fd5b610078610049366004610476565b6001600160a01b0391821660009081526020818152604080832093909416825291909152205463ffffffff1690565b60405163ffffffff909116815260200160405180910390f35b6100a461009f3660046104d3565b6100a6565b005b60008363ffffffff16116101015760405162461bcd60e51b815260206004820152601960248201527f4e65772064656274206d75737420626520706f7369746976650000000000000060448201526064015b60405180910390fd5b6001600160a01b0384163314156101505760405162461bcd60e51b81526020600482015260136024820152724e6f2077656972642073656c66206c6f6f707360681b60448201526064016100f8565b336000908152602081815260408083206001600160a01b03881684529091528120805485929061018790849063ffffffff166105e2565b92506101000a81548163ffffffff021916908363ffffffff16021790555060008163ffffffff16111561045457600282511180156102165750816000815181106101d3576101d361060a565b60200260200101516001600160a01b031682600184516101f39190610620565b815181106102035761020361060a565b60200260200101516001600160a01b0316145b61026e5760405162461bcd60e51b815260206004820152602360248201527f446562742063616e63656c6c6174696f6e206c6f6f70206973206d616c666f726044820152621b595960ea1b60648201526084016100f8565b60005b6001835161027f9190610620565b811015610452578163ffffffff166000808584815181106102a2576102a261060a565b60200260200101516001600160a01b03166001600160a01b031681526020019081526020016000206000858460016102da9190610637565b815181106102ea576102ea61060a565b6020908102919091018101516001600160a01b031682528101919091526040016000205463ffffffff16101561037d5760405162461bcd60e51b815260206004820152603260248201527f417474656d7074696e6720746f206c6f6f702063616e63656c206d6f72652064604482015271656274207468616e20617661696c61626c6560701b60648201526084016100f8565b816000808584815181106103935761039361060a565b60200260200101516001600160a01b03166001600160a01b031681526020019081526020016000206000858460016103cb9190610637565b815181106103db576103db61060a565b60200260200101516001600160a01b03166001600160a01b0316815260200190815260200160002060008282829054906101000a900463ffffffff16610421919061064f565b92506101000a81548163ffffffff021916908363ffffffff160217905550808061044a90610674565b915050610271565b505b50505050565b80356001600160a01b038116811461047157600080fd5b919050565b6000806040838503121561048957600080fd5b6104928361045a565b91506104a06020840161045a565b90509250929050565b803563ffffffff8116811461047157600080fd5b634e487b7160e01b600052604160045260246000fd5b600080600080608085870312156104e957600080fd5b6104f28561045a565b935060206105018187016104a9565b9350604086013567ffffffffffffffff8082111561051e57600080fd5b818801915088601f83011261053257600080fd5b813581811115610544576105446104bd565b8060051b604051601f19603f83011681018181108582111715610569576105696104bd565b60405291825284820192508381018501918b83111561058757600080fd5b938501935b828510156105ac5761059d8561045a565b8452938501939285019261058c565b8097505050505050506105c1606086016104a9565b905092959194509250565b634e487b7160e01b600052601160045260246000fd5b600063ffffffff808316818516808303821115610601576106016105cc565b01949350505050565b634e487b7160e01b600052603260045260246000fd5b600082821015610632576106326105cc565b500390565b6000821982111561064a5761064a6105cc565b500190565b600063ffffffff8381169083168181101561066c5761066c6105cc565b039392505050565b6000600019821415610688576106886105cc565b506001019056fea26469706673582212208093220866cf60afeff4875aedd29ecc317f2ec166c394f47ba244374994c5cb64736f6c63430008090033",
			"opcodes": "PUSH1 0x80 PUSH1 0x40 MSTORE CALLVALUE DUP1 ISZERO PUSH2 0x10 JUMPI PUSH1 0x0 DUP1 REVERT JUMPDEST POP PUSH2 0x6C5 DUP1 PUSH2 0x20 PUSH1 0x0 CODECOPY PUSH1 0x0 RETURN INVALID PUSH1 0x80 PUSH1 0x40 MSTORE CALLVALUE DUP1 ISZERO PUSH2 0x10 JUMPI PUSH1 0x0 DUP1 REVERT JUMPDEST POP PUSH1 0x4 CALLDATASIZE LT PUSH2 0x36 JUMPI PUSH1 0x0 CALLDATALOAD PUSH1 0xE0 SHR DUP1 PUSH4 0x713584A6 EQ PUSH2 0x3B JUMPI DUP1 PUSH4 0x7A8790B4 EQ PUSH2 0x91 JUMPI JUMPDEST PUSH1 0x0 DUP1 REVERT JUMPDEST PUSH2 0x78 PUSH2 0x49 CALLDATASIZE PUSH1 0x4 PUSH2 0x476 JUMP JUMPDEST PUSH1 0x1 PUSH1 0x1 PUSH1 0xA0 SHL SUB SWAP2 DUP3 AND PUSH1 0x0 SWAP1 DUP2 MSTORE PUSH1 0x20 DUP2 DUP2 MSTORE PUSH1 0x40 DUP1 DUP4 KECCAK256 SWAP4 SWAP1 SWAP5 AND DUP3 MSTORE SWAP2 SWAP1 SWAP2 MSTORE KECCAK256 SLOAD PUSH4 0xFFFFFFFF AND SWAP1 JUMP JUMPDEST PUSH1 0x40 MLOAD PUSH4 0xFFFFFFFF SWAP1 SWAP2 AND DUP2 MSTORE PUSH1 0x20 ADD PUSH1 0x40 MLOAD DUP1 SWAP2 SUB SWAP1 RETURN JUMPDEST PUSH2 0xA4 PUSH2 0x9F CALLDATASIZE PUSH1 0x4 PUSH2 0x4D3 JUMP JUMPDEST PUSH2 0xA6 JUMP JUMPDEST STOP JUMPDEST PUSH1 0x0 DUP4 PUSH4 0xFFFFFFFF AND GT PUSH2 0x101 JUMPI PUSH1 0x40 MLOAD PUSH3 0x461BCD PUSH1 0xE5 SHL DUP2 MSTORE PUSH1 0x20 PUSH1 0x4 DUP3 ADD MSTORE PUSH1 0x19 PUSH1 0x24 DUP3 ADD MSTORE PUSH32 0x4E65772064656274206D75737420626520706F73697469766500000000000000 PUSH1 0x44 DUP3 ADD MSTORE PUSH1 0x64 ADD JUMPDEST PUSH1 0x40 MLOAD DUP1 SWAP2 SUB SWAP1 REVERT JUMPDEST PUSH1 0x1 PUSH1 0x1 PUSH1 0xA0 SHL SUB DUP5 AND CALLER EQ ISZERO PUSH2 0x150 JUMPI PUSH1 0x40 MLOAD PUSH3 0x461BCD PUSH1 0xE5 SHL DUP2 MSTORE PUSH1 0x20 PUSH1 0x4 DUP3 ADD MSTORE PUSH1 0x13 PUSH1 0x24 DUP3 ADD MSTORE PUSH19 0x4E6F2077656972642073656C66206C6F6F7073 PUSH1 0x68 SHL PUSH1 0x44 DUP3 ADD MSTORE PUSH1 0x64 ADD PUSH2 0xF8 JUMP JUMPDEST CALLER PUSH1 0x0 SWAP1 DUP2 MSTORE PUSH1 0x20 DUP2 DUP2 MSTORE PUSH1 0x40 DUP1 DUP4 KECCAK256 PUSH1 0x1 PUSH1 0x1 PUSH1 0xA0 SHL SUB DUP9 AND DUP5 MSTORE SWAP1 SWAP2 MSTORE DUP2 KECCAK256 DUP1 SLOAD DUP6 SWAP3 SWAP1 PUSH2 0x187 SWAP1 DUP5 SWAP1 PUSH4 0xFFFFFFFF AND PUSH2 0x5E2 JUMP JUMPDEST SWAP3 POP PUSH2 0x100 EXP DUP2 SLOAD DUP2 PUSH4 0xFFFFFFFF MUL NOT AND SWAP1 DUP4 PUSH4 0xFFFFFFFF AND MUL OR SWAP1 SSTORE POP PUSH1 0x0 DUP2 PUSH4 0xFFFFFFFF AND GT ISZERO PUSH2 0x454 JUMPI PUSH1 0x2 DUP3 MLOAD GT DUP1 ISZERO PUSH2 0x216 JUMPI POP DUP2 PUSH1 0x0 DUP2 MLOAD DUP2 LT PUSH2 0x1D3 JUMPI PUSH2 0x1D3 PUSH2 0x60A JUMP JUMPDEST PUSH1 0x20 MUL PUSH1 0x20 ADD ADD MLOAD PUSH1 0x1 PUSH1 0x1 PUSH1 0xA0 SHL SUB AND DUP3 PUSH1 0x1 DUP5 MLOAD PUSH2 0x1F3 SWAP2 SWAP1 PUSH2 0x620 JUMP JUMPDEST DUP2 MLOAD DUP2 LT PUSH2 0x203 JUMPI PUSH2 0x203 PUSH2 0x60A JUMP JUMPDEST PUSH1 0x20 MUL PUSH1 0x20 ADD ADD MLOAD PUSH1 0x1 PUSH1 0x1 PUSH1 0xA0 SHL SUB AND EQ JUMPDEST PUSH2 0x26E JUMPI PUSH1 0x40 MLOAD PUSH3 0x461BCD PUSH1 0xE5 SHL DUP2 MSTORE PUSH1 0x20 PUSH1 0x4 DUP3 ADD MSTORE PUSH1 0x23 PUSH1 0x24 DUP3 ADD MSTORE PUSH32 0x446562742063616E63656C6C6174696F6E206C6F6F70206973206D616C666F72 PUSH1 0x44 DUP3 ADD MSTORE PUSH3 0x1B5959 PUSH1 0xEA SHL PUSH1 0x64 DUP3 ADD MSTORE PUSH1 0x84 ADD PUSH2 0xF8 JUMP JUMPDEST PUSH1 0x0 JUMPDEST PUSH1 0x1 DUP4 MLOAD PUSH2 0x27F SWAP2 SWAP1 PUSH2 0x620 JUMP JUMPDEST DUP2 LT ISZERO PUSH2 0x452 JUMPI DUP2 PUSH4 0xFFFFFFFF AND PUSH1 0x0 DUP1 DUP6 DUP5 DUP2 MLOAD DUP2 LT PUSH2 0x2A2 JUMPI PUSH2 0x2A2 PUSH2 0x60A JUMP JUMPDEST PUSH1 0x20 MUL PUSH1 0x20 ADD ADD MLOAD PUSH1 0x1 PUSH1 0x1 PUSH1 0xA0 SHL SUB AND PUSH1 0x1 PUSH1 0x1 PUSH1 0xA0 SHL SUB AND DUP2 MSTORE PUSH1 0x20 ADD SWAP1 DUP2 MSTORE PUSH1 0x20 ADD PUSH1 0x0 KECCAK256 PUSH1 0x0 DUP6 DUP5 PUSH1 0x1 PUSH2 0x2DA SWAP2 SWAP1 PUSH2 0x637 JUMP JUMPDEST DUP2 MLOAD DUP2 LT PUSH2 0x2EA JUMPI PUSH2 0x2EA PUSH2 0x60A JUMP JUMPDEST PUSH1 0x20 SWAP1 DUP2 MUL SWAP2 SWAP1 SWAP2 ADD DUP2 ADD MLOAD PUSH1 0x1 PUSH1 0x1 PUSH1 0xA0 SHL SUB AND DUP3 MSTORE DUP2 ADD SWAP2 SWAP1 SWAP2 MSTORE PUSH1 0x40 ADD PUSH1 0x0 KECCAK256 SLOAD PUSH4 0xFFFFFFFF AND LT ISZERO PUSH2 0x37D JUMPI PUSH1 0x40 MLOAD PUSH3 0x461BCD PUSH1 0xE5 SHL DUP2 MSTORE PUSH1 0x20 PUSH1 0x4 DUP3 ADD MSTORE PUSH1 0x32 PUSH1 0x24 DUP3 ADD MSTORE PUSH32 0x417474656D7074696E6720746F206C6F6F702063616E63656C206D6F72652064 PUSH1 0x44 DUP3 ADD MSTORE PUSH18 0x656274207468616E20617661696C61626C65 PUSH1 0x70 SHL PUSH1 0x64 DUP3 ADD MSTORE PUSH1 0x84 ADD PUSH2 0xF8 JUMP JUMPDEST DUP2 PUSH1 0x0 DUP1 DUP6 DUP5 DUP2 MLOAD DUP2 LT PUSH2 0x393 JUMPI PUSH2 0x393 PUSH2 0x60A JUMP JUMPDEST PUSH1 0x20 MUL PUSH1 0x20 ADD ADD MLOAD PUSH1 0x1 PUSH1 0x1 PUSH1 0xA0 SHL SUB AND PUSH1 0x1 PUSH1 0x1 PUSH1 0xA0 SHL SUB AND DUP2 MSTORE PUSH1 0x20 ADD SWAP1 DUP2 MSTORE PUSH1 0x20 ADD PUSH1 0x0 KECCAK256 PUSH1 0x0 DUP6 DUP5 PUSH1 0x1 PUSH2 0x3CB SWAP2 SWAP1 PUSH2 0x637 JUMP JUMPDEST DUP2 MLOAD DUP2 LT PUSH2 0x3DB JUMPI PUSH2 0x3DB PUSH2 0x60A JUMP JUMPDEST PUSH1 0x20 MUL PUSH1 0x20 ADD ADD MLOAD PUSH1 0x1 PUSH1 0x1 PUSH1 0xA0 SHL SUB AND PUSH1 0x1 PUSH1 0x1 PUSH1 0xA0 SHL SUB AND DUP2 MSTORE PUSH1 0x20 ADD SWAP1 DUP2 MSTORE PUSH1 0x20 ADD PUSH1 0x0 KECCAK256 PUSH1 0x0 DUP3 DUP3 DUP3 SWAP1 SLOAD SWAP1 PUSH2 0x100 EXP SWAP1 DIV PUSH4 0xFFFFFFFF AND PUSH2 0x421 SWAP2 SWAP1 PUSH2 0x64F JUMP JUMPDEST SWAP3 POP PUSH2 0x100 EXP DUP2 SLOAD DUP2 PUSH4 0xFFFFFFFF MUL NOT AND SWAP1 DUP4 PUSH4 0xFFFFFFFF AND MUL OR SWAP1 SSTORE POP DUP1 DUP1 PUSH2 0x44A SWAP1 PUSH2 0x674 JUMP JUMPDEST SWAP2 POP POP PUSH2 0x271 JUMP JUMPDEST POP JUMPDEST POP POP POP POP JUMP JUMPDEST DUP1 CALLDATALOAD PUSH1 0x1 PUSH1 0x1 PUSH1 0xA0 SHL SUB DUP2 AND DUP2 EQ PUSH2 0x471 JUMPI PUSH1 0x0 DUP1 REVERT JUMPDEST SWAP2 SWAP1 POP JUMP JUMPDEST PUSH1 0x0 DUP1 PUSH1 0x40 DUP4 DUP6 SUB SLT ISZERO PUSH2 0x489 JUMPI PUSH1 0x0 DUP1 REVERT JUMPDEST PUSH2 0x492 DUP4 PUSH2 0x45A JUMP JUMPDEST SWAP2 POP PUSH2 0x4A0 PUSH1 0x20 DUP5 ADD PUSH2 0x45A JUMP JUMPDEST SWAP1 POP SWAP3 POP SWAP3 SWAP1 POP JUMP JUMPDEST DUP1 CALLDATALOAD PUSH4 0xFFFFFFFF DUP2 AND DUP2 EQ PUSH2 0x471 JUMPI PUSH1 0x0 DUP1 REVERT JUMPDEST PUSH4 0x4E487B71 PUSH1 0xE0 SHL PUSH1 0x0 MSTORE PUSH1 0x41 PUSH1 0x4 MSTORE PUSH1 0x24 PUSH1 0x0 REVERT JUMPDEST PUSH1 0x0 DUP1 PUSH1 0x0 DUP1 PUSH1 0x80 DUP6 DUP8 SUB SLT ISZERO PUSH2 0x4E9 JUMPI PUSH1 0x0 DUP1 REVERT JUMPDEST PUSH2 0x4F2 DUP6 PUSH2 0x45A JUMP JUMPDEST SWAP4 POP PUSH1 0x20 PUSH2 0x501 DUP2 DUP8 ADD PUSH2 0x4A9 JUMP JUMPDEST SWAP4 POP PUSH1 0x40 DUP7 ADD CALLDATALOAD PUSH8 0xFFFFFFFFFFFFFFFF DUP1 DUP3 GT ISZERO PUSH2 0x51E JUMPI PUSH1 0x0 DUP1 REVERT JUMPDEST DUP2 DUP9 ADD SWAP2 POP DUP9 PUSH1 0x1F DUP4 ADD SLT PUSH2 0x532 JUMPI PUSH1 0x0 DUP1 REVERT JUMPDEST DUP2 CALLDATALOAD DUP2 DUP2 GT ISZERO PUSH2 0x544 JUMPI PUSH2 0x544 PUSH2 0x4BD JUMP JUMPDEST DUP1 PUSH1 0x5 SHL PUSH1 0x40 MLOAD PUSH1 0x1F NOT PUSH1 0x3F DUP4 ADD AND DUP2 ADD DUP2 DUP2 LT DUP6 DUP3 GT OR ISZERO PUSH2 0x569 JUMPI PUSH2 0x569 PUSH2 0x4BD JUMP JUMPDEST PUSH1 0x40 MSTORE SWAP2 DUP3 MSTORE DUP5 DUP3 ADD SWAP3 POP DUP4 DUP2 ADD DUP6 ADD SWAP2 DUP12 DUP4 GT ISZERO PUSH2 0x587 JUMPI PUSH1 0x0 DUP1 REVERT JUMPDEST SWAP4 DUP6 ADD SWAP4 JUMPDEST DUP3 DUP6 LT ISZERO PUSH2 0x5AC JUMPI PUSH2 0x59D DUP6 PUSH2 0x45A JUMP JUMPDEST DUP5 MSTORE SWAP4 DUP6 ADD SWAP4 SWAP3 DUP6 ADD SWAP3 PUSH2 0x58C JUMP JUMPDEST DUP1 SWAP8 POP POP POP POP POP POP POP PUSH2 0x5C1 PUSH1 0x60 DUP7 ADD PUSH2 0x4A9 JUMP JUMPDEST SWAP1 POP SWAP3 SWAP6 SWAP2 SWAP5 POP SWAP3 POP JUMP JUMPDEST PUSH4 0x4E487B71 PUSH1 0xE0 SHL PUSH1 0x0 MSTORE PUSH1 0x11 PUSH1 0x4 MSTORE PUSH1 0x24 PUSH1 0x0 REVERT JUMPDEST PUSH1 0x0 PUSH4 0xFFFFFFFF DUP1 DUP4 AND DUP2 DUP6 AND DUP1 DUP4 SUB DUP3 GT ISZERO PUSH2 0x601 JUMPI PUSH2 0x601 PUSH2 0x5CC JUMP JUMPDEST ADD SWAP5 SWAP4 POP POP POP POP JUMP JUMPDEST PUSH4 0x4E487B71 PUSH1 0xE0 SHL PUSH1 0x0 MSTORE PUSH1 0x32 PUSH1 0x4 MSTORE PUSH1 0x24 PUSH1 0x0 REVERT JUMPDEST PUSH1 0x0 DUP3 DUP3 LT ISZERO PUSH2 0x632 JUMPI PUSH2 0x632 PUSH2 0x5CC JUMP JUMPDEST POP SUB SWAP1 JUMP JUMPDEST PUSH1 0x0 DUP3 NOT DUP3 GT ISZERO PUSH2 0x64A JUMPI PUSH2 0x64A PUSH2 0x5CC JUMP JUMPDEST POP ADD SWAP1 JUMP JUMPDEST PUSH1 0x0 PUSH4 0xFFFFFFFF DUP4 DUP2 AND SWAP1 DUP4 AND DUP2 DUP2 LT ISZERO PUSH2 0x66C JUMPI PUSH2 0x66C PUSH2 0x5CC JUMP JUMPDEST SUB SWAP4 SWAP3 POP POP POP JUMP JUMPDEST PUSH1 0x0 PUSH1 0x0 NOT DUP3 EQ ISZERO PUSH2 0x688 JUMPI PUSH2 0x688 PUSH2 0x5CC JUMP JUMPDEST POP PUSH1 0x1 ADD SWAP1 JUMP INVALID LOG2 PUSH5 0x6970667358 0x22 SLT KECCAK256 DUP1 SWAP4 0x22 ADDMOD PUSH7 0xCF60AFEFF4875A 0xED 0xD2 SWAP15 0xCC BALANCE PUSH32 0x2EC166C394F47BA244374994C5CB64736F6C6343000809003300000000000000 "
		},
		"gasEstimates": {
			"creation": {
				"codeDepositCost": "346600",
				"executionCost": "386",
				"totalCost": "346986"
			},
			"external": {
				"add_IOU(address,uint32,address[],uint32)": "infinite",
				"lookup(address,address)": "infinite"
			}
		},
		"methodIdentifiers": {
			"add_IOU(address,uint32,address[],uint32)": "7a8790b4",
			"lookup(address,address)": "713584a6"
		}
	},
	"abi": [
		{
			"inputs": [
				{
					"internalType": "address",
					"name": "creditor",
					"type": "address"
				},
				{
					"internalType": "uint32",
					"name": "amount",
					"type": "uint32"
				},
				{
					"internalType": "address[]",
					"name": "loopAddresses",
					"type": "address[]"
				},
				{
					"internalType": "uint32",
					"name": "loopDebt",
					"type": "uint32"
				}
			],
			"name": "add_IOU",
			"outputs": [],
			"stateMutability": "nonpayable",
			"type": "function"
		},
		{
			"inputs": [
				{
					"internalType": "address",
					"name": "debtor",
					"type": "address"
				},
				{
					"internalType": "address",
					"name": "creditor",
					"type": "address"
				}
			],
			"name": "lookup",
			"outputs": [
				{
					"internalType": "uint32",
					"name": "ret",
					"type": "uint32"
				}
			],
			"stateMutability": "view",
			"type": "function"
		}
	]
}